{
  "_format": "hh-sol-artifact-1",
  "contractName": "ConfessionVault",
  "sourceName": "contracts/ConfessionVault.sol",
  "abi": [
    {
      "inputs": [],
      "stateMutability": "nonpayable",
      "type": "constructor"
    },
    {
      "inputs": [
        {
          "internalType": "address",
          "name": "owner",
          "type": "address"
        }
      ],
      "name": "OwnableInvalidOwner",
      "type": "error"
    },
    {
      "inputs": [
        {
          "internalType": "address",
          "name": "account",
          "type": "address"
        }
      ],
      "name": "OwnableUnauthorizedAccount",
      "type": "error"
    },
    {
      "inputs": [],
      "name": "ReentrancyGuardReentrantCall",
      "type": "error"
    },
    {
      "anonymous": false,
      "inputs": [
        {
          "indexed": true,
          "internalType": "uint256",
          "name": "id",
          "type": "uint256"
        },
        {
          "indexed": true,
          "internalType": "address",
          "name": "author",
          "type": "address"
        },
        {
          "indexed": false,
          "internalType": "uint256",
          "name": "timestamp",
          "type": "uint256"
        }
      ],
      "name": "ConfessionSubmitted",
      "type": "event"
    },
    {
      "anonymous": false,
      "inputs": [
        {
          "indexed": true,
          "internalType": "uint256",
          "name": "id",
          "type": "uint256"
        },
        {
          "indexed": true,
          "internalType": "address",
          "name": "voter",
          "type": "address"
        },
        {
          "indexed": false,
          "internalType": "uint256",
          "name": "timestamp",
          "type": "uint256"
        }
      ],
      "name": "ConfessionUpvoted",
      "type": "event"
    },
    {
      "anonymous": false,
      "inputs": [
        {
          "indexed": false,
          "internalType": "bool",
          "name": "isPaused",
          "type": "bool"
        }
      ],
      "name": "ContractPaused",
      "type": "event"
    },
    {
      "anonymous": false,
      "inputs": [
        {
          "indexed": true,
          "internalType": "address",
          "name": "previousOwner",
          "type": "address"
        },
        {
          "indexed": true,
          "internalType": "address",
          "name": "newOwner",
          "type": "address"
        }
      ],
      "name": "OwnershipTransferred",
      "type": "event"
    },
    {
      "anonymous": false,
      "inputs": [
        {
          "indexed": false,
          "internalType": "uint256",
          "name": "newCooldown",
          "type": "uint256"
        }
      ],
      "name": "RateLimitUpdated",
      "type": "event"
    },
    {
      "inputs": [],
      "name": "confessionCount",
      "outputs": [
        {
          "internalType": "uint256",
          "name": "",
          "type": "uint256"
        }
      ],
      "stateMutability": "view",
      "type": "function"
    },
    {
      "inputs": [
        {
          "internalType": "uint256",
          "name": "",
          "type": "uint256"
        }
      ],
      "name": "confessions",
      "outputs": [
        {
          "internalType": "bytes",
          "name": "message",
          "type": "bytes"
        },
        {
          "internalType": "euint32",
          "name": "encryptedVotes",
          "type": "bytes32"
        },
        {
          "internalType": "uint32",
          "name": "voteCount",
          "type": "uint32"
        },
        {
          "internalType": "uint64",
          "name": "createdAt",
          "type": "uint64"
        },
        {
          "internalType": "address",
          "name": "author",
          "type": "address"
        },
        {
          "internalType": "bytes32",
          "name": "ipfsCID",
          "type": "bytes32"
        },
        {
          "internalType": "bool",
          "name": "exists",
          "type": "bool"
        }
      ],
      "stateMutability": "view",
      "type": "function"
    },
    {
      "inputs": [],
      "name": "emergencyPause",
      "outputs": [],
      "stateMutability": "nonpayable",
      "type": "function"
    },
    {
      "inputs": [
        {
          "internalType": "uint256",
          "name": "_id",
          "type": "uint256"
        }
      ],
      "name": "getConfession",
      "outputs": [
        {
          "components": [
            {
              "internalType": "bytes",
              "name": "message",
              "type": "bytes"
            },
            {
              "internalType": "euint32",
              "name": "encryptedVotes",
              "type": "bytes32"
            },
            {
              "internalType": "uint32",
              "name": "voteCount",
              "type": "uint32"
            },
            {
              "internalType": "uint64",
              "name": "createdAt",
              "type": "uint64"
            },
            {
              "internalType": "address",
              "name": "author",
              "type": "address"
            },
            {
              "internalType": "bytes32",
              "name": "ipfsCID",
              "type": "bytes32"
            },
            {
              "internalType": "bool",
              "name": "exists",
              "type": "bool"
            }
          ],
          "internalType": "struct ConfessionVault.Confession",
          "name": "",
          "type": "tuple"
        }
      ],
      "stateMutability": "view",
      "type": "function"
    },
    {
      "inputs": [
        {
          "internalType": "uint256",
          "name": "_id",
          "type": "uint256"
        }
      ],
      "name": "getConfessionData",
      "outputs": [
        {
          "internalType": "bytes",
          "name": "message",
          "type": "bytes"
        },
        {
          "internalType": "euint32",
          "name": "encryptedVotes",
          "type": "bytes32"
        },
        {
          "internalType": "uint32",
          "name": "voteCount",
          "type": "uint32"
        },
        {
          "internalType": "uint64",
          "name": "createdAt",
          "type": "uint64"
        }
      ],
      "stateMutability": "view",
      "type": "function"
    },
    {
      "inputs": [
        {
          "internalType": "address",
          "name": "_user",
          "type": "address"
        }
      ],
      "name": "getRemainingCooldown",
      "outputs": [
        {
          "internalType": "uint256",
          "name": "",
          "type": "uint256"
        }
      ],
      "stateMutability": "view",
      "type": "function"
    },
    {
      "inputs": [
        {
          "internalType": "uint256",
          "name": "",
          "type": "uint256"
        },
        {
          "internalType": "address",
          "name": "",
          "type": "address"
        }
      ],
      "name": "hasUpvoted",
      "outputs": [
        {
          "internalType": "bool",
          "name": "",
          "type": "bool"
        }
      ],
      "stateMutability": "view",
      "type": "function"
    },
    {
      "inputs": [
        {
          "internalType": "uint256",
          "name": "_confessionId",
          "type": "uint256"
        },
        {
          "internalType": "address",
          "name": "_voter",
          "type": "address"
        }
      ],
      "name": "hasUserUpvoted",
      "outputs": [
        {
          "internalType": "bool",
          "name": "",
          "type": "bool"
        }
      ],
      "stateMutability": "view",
      "type": "function"
    },
    {
      "inputs": [
        {
          "internalType": "address",
          "name": "",
          "type": "address"
        }
      ],
      "name": "lastSubmissionTime",
      "outputs": [
        {
          "internalType": "uint256",
          "name": "",
          "type": "uint256"
        }
      ],
      "stateMutability": "view",
      "type": "function"
    },
    {
      "inputs": [],
      "name": "owner",
      "outputs": [
        {
          "internalType": "address",
          "name": "",
          "type": "address"
        }
      ],
      "stateMutability": "view",
      "type": "function"
    },
    {
      "inputs": [],
      "name": "paused",
      "outputs": [
        {
          "internalType": "bool",
          "name": "",
          "type": "bool"
        }
      ],
      "stateMutability": "view",
      "type": "function"
    },
    {
      "inputs": [],
      "name": "protocolId",
      "outputs": [
        {
          "internalType": "uint256",
          "name": "",
          "type": "uint256"
        }
      ],
      "stateMutability": "pure",
      "type": "function"
    },
    {
      "inputs": [],
      "name": "rateLimitCooldown",
      "outputs": [
        {
          "internalType": "uint256",
          "name": "",
          "type": "uint256"
        }
      ],
      "stateMutability": "view",
      "type": "function"
    },
    {
      "inputs": [],
      "name": "renounceOwnership",
      "outputs": [],
      "stateMutability": "nonpayable",
      "type": "function"
    },
    {
      "inputs": [
        {
          "internalType": "bytes",
          "name": "_message",
          "type": "bytes"
        }
      ],
      "name": "submitConfession",
      "outputs": [
        {
          "internalType": "uint256",
          "name": "",
          "type": "uint256"
        }
      ],
      "stateMutability": "nonpayable",
      "type": "function"
    },
    {
      "inputs": [],
      "name": "togglePause",
      "outputs": [],
      "stateMutability": "nonpayable",
      "type": "function"
    },
    {
      "inputs": [
        {
          "internalType": "address",
          "name": "newOwner",
          "type": "address"
        }
      ],
      "name": "transferOwnership",
      "outputs": [],
      "stateMutability": "nonpayable",
      "type": "function"
    },
    {
      "inputs": [],
      "name": "unpause",
      "outputs": [],
      "stateMutability": "nonpayable",
      "type": "function"
    },
    {
      "inputs": [
        {
          "internalType": "uint256",
          "name": "_confessionId",
          "type": "uint256"
        },
        {
          "internalType": "bytes32",
          "name": "_ipfsCID",
          "type": "bytes32"
        }
      ],
      "name": "updateIPFSCID",
      "outputs": [],
      "stateMutability": "nonpayable",
      "type": "function"
    },
    {
      "inputs": [
        {
          "internalType": "uint256",
          "name": "_newCooldown",
          "type": "uint256"
        }
      ],
      "name": "updateRateLimit",
      "outputs": [],
      "stateMutability": "nonpayable",
      "type": "function"
    },
    {
      "inputs": [
        {
          "internalType": "uint256",
          "name": "_confessionId",
          "type": "uint256"
        }
      ],
      "name": "upvote",
      "outputs": [],
      "stateMutability": "nonpayable",
      "type": "function"
    }
  ],
  "bytecode": "0x608060405261012c600655348015610015575f80fd5b50336101916100b5604080516080810182525f808252602082018190529181018290526060810191909152506040805160808101825273687820221192c5b662b25367f70076a37bc79b6c815273848b0066793bcc60346da1f49049357399b8d595602082015273a02cda4ca3a71d7c46997716f4283aa851c2881291810191909152731364cbbf2cdf5032c47d8226a6f6fbd2afcdacac606082015290565b80517f9e7b61f58c47dc699ac88507c4f5bb9f121c03808c5676a8078fe583e464970080546001600160a01b03199081166001600160a01b039384161790915560208301517f9e7b61f58c47dc699ac88507c4f5bb9f121c03808c5676a8078fe583e46497018054831691841691909117905560408301517f9e7b61f58c47dc699ac88507c4f5bb9f121c03808c5676a8078fe583e46497028054831691841691909117905560608301517f9e7b61f58c47dc699ac88507c4f5bb9f121c03808c5676a8078fe583e46497038054909216921691909117905550565b6001600160a01b0381166101be57604051631e4fbdf760e01b81525f600482015260240160405180910390fd5b6101c7816101d1565b5060018055610220565b5f80546001600160a01b038381166001600160a01b0319831681178455604051919092169283917f8be0079c531659141344cd1fd0a4f28419497f9722a3daafe3b4186f6b6457e09190a35050565b61163f8061022d5f395ff3fe608060405234801561000f575f80fd5b5060043610610132575f3560e01c80638da5cb5b116100b4578063a9c6d4e411610079578063a9c6d4e41461029a578063c4ae3168146102ad578063da1f12ab146102b5578063dfe85421146102bd578063e6f3e004146102d0578063f2fde38b146102e3575f80fd5b80638da5cb5b1461020857806398d1414a14610222578063a374f17a1461022b578063a43654761461024e578063a52c86581461026d575f80fd5b806353dd9a09116100fa57806353dd9a09146101a35780635c975abb146101b6578063715018a6146101c3578063783755f5146101cb5780637cf7b946146101e2575f80fd5b806301ddf07014610136578063032e373f1461014b5780633f4ba83a1461017357806345b8d00c1461017b57806351858e271461019b575b5f80fd5b610149610144366004611161565b6102f6565b005b61015e610159366004611193565b6104c9565b60405190151581526020015b60405180910390f35b6101496104f5565b61018e610189366004611161565b61053d565b60405161016a9190611200565b6101496106b3565b6101496101b1366004611161565b6106fb565b60075461015e9060ff1681565b610149610790565b6101d460065481565b60405190815260200161016a565b6101f56101f0366004611161565b6107a3565b60405161016a979695949392919061127e565b5f546040516001600160a01b03909116815260200161016a565b6101d460055481565b61023e610239366004611161565b610886565b60405161016a94939291906112dc565b6101d461025c36600461131a565b60046020525f908152604090205481565b61015e61027b366004611193565b600360209081525f928352604080842090915290825290205460ff1681565b6101d46102a8366004611333565b6109f5565b610149610cd3565b6127116101d4565b6101496102cb36600461139f565b610d23565b6101d46102de36600461131a565b610dd7565b6101496102f136600461131a565b610e22565b60075460ff16156103435760405162461bcd60e51b815260206004820152601260248201527110dbdb9d1c9858dd081a5cc81c185d5cd95960721b60448201526064015b60405180910390fd5b61034b610e5c565b5f8181526002602052604090206004015460ff1661037b5760405162461bcd60e51b815260040161033a906113bf565b5f81815260036020908152604080832033845290915290205460ff16156103e45760405162461bcd60e51b815260206004820152601f60248201527f416c7265616479207570766f746564207468697320636f6e66657373696f6e00604482015260640161033a565b5f6103ef6001610e86565b5f838152600260205260408120600101549192509061040e9083610e98565b905061041a8130610ec6565b505f83815260026020819052604082206001810184905501805463ffffffff16916104448361140a565b825463ffffffff9182166101009390930a9283029190920219909116179055505f8381526003602090815260408083203380855290835292819020805460ff191660011790555142815285917f55ff451617d567cbc5ef1c6f385961283ee39ae579d3d2648aed119cf1d671f4910160405180910390a350506104c660018055565b50565b5f8281526003602090815260408083206001600160a01b038516845290915290205460ff165b92915050565b6104fd610ed8565b6007805460ff191690556040515f81527f752d7e161ff5146f80e3820893176eb40532811e5e20400dfdde57455213706a906020015b60405180910390a1565b6040805160e08101825260608082525f6020830181905292820183905281018290526080810182905260a0810182905260c08101919091525f8281526002602052604090206004015460ff166105a55760405162461bcd60e51b815260040161033a906113bf565b5f8281526002602052604090819020815160e081019092528054829082906105cc9061142c565b80601f01602080910402602001604051908101604052809291908181526020018280546105f89061142c565b80156106435780601f1061061a57610100808354040283529160200191610643565b820191905f5260205f20905b81548152906001019060200180831161062657829003601f168201915b505050918352505060018201546020820152600282015463ffffffff81166040830152640100000000810467ffffffffffffffff166060830152600160601b90046001600160a01b03166080820152600382015460a082015260049091015460ff16151560c09091015292915050565b6106bb610ed8565b6007805460ff191660019081179091556040519081527f752d7e161ff5146f80e3820893176eb40532811e5e20400dfdde57455213706a90602001610533565b610703610ed8565b610e108111156107555760405162461bcd60e51b815260206004820152601e60248201527f436f6f6c646f776e20746f6f206c6f6e6720286d6178203120686f7572290000604482015260640161033a565b60068190556040518181527f1939de75d13c836ba62103f23c7a2622e9cbc2113aa33a8c74eb28e409313db29060200160405180910390a150565b610798610ed8565b6107a15f610f04565b565b60026020525f90815260409020805481906107bd9061142c565b80601f01602080910402602001604051908101604052809291908181526020018280546107e99061142c565b80156108345780601f1061080b57610100808354040283529160200191610834565b820191905f5260205f20905b81548152906001019060200180831161081757829003601f168201915b505050506001830154600284015460038501546004909501549394919363ffffffff82169350640100000000820467ffffffffffffffff1692600160601b9092046001600160a01b0316919060ff1687565b5f81815260026020526040812060040154606091908190819060ff166108be5760405162461bcd60e51b815260040161033a906113bf565b5f85815260026020526040808220815160e081019092528054829082906108e49061142c565b80601f01602080910402602001604051908101604052809291908181526020018280546109109061142c565b801561095b5780601f106109325761010080835404028352916020019161095b565b820191905f5260205f20905b81548152906001019060200180831161093e57829003601f168201915b50505091835250506001820154602080830191909152600283015463ffffffff8116604080850191909152640100000000820467ffffffffffffffff16606080860191909152600160601b9092046001600160a01b03166080850152600385015460a085015260049094015460ff16151560c090930192909252835190840151928401519390910151909991985091965090945092505050565b6007545f9060ff1615610a3f5760405162461bcd60e51b815260206004820152601260248201527110dbdb9d1c9858dd081a5cc81c185d5cd95960721b604482015260640161033a565b610a47610e5c565b81610a945760405162461bcd60e51b815260206004820152601760248201527f4d6573736167652063616e6e6f7420626520656d707479000000000000000000604482015260640161033a565b600654335f90815260046020526040902054610ab09190611464565b421015610b255760405162461bcd60e51b815260206004820152603760248201527f52617465206c696d697420616374697665202d20706c6561736520776169742060448201527f6265666f7265207375626d697474696e6720616761696e000000000000000000606482015260840161033a565b60058054905f610b3483611477565b90915550506005545f610b4681610e86565b9050610b528130610ec6565b506040518060e0016040528086868080601f0160208091040260200160405190810160405280939291908181526020018383808284375f9201829052509385525050506020808301859052604080840183905267ffffffffffffffff4216606085015233608085015260a08401839052600160c090940193909352858252600290522081518190610be390826114ef565b506020828101516001830155604080840151600284018054606087015160808801516001600160a01b0316600160601b026bffffffffffffffffffffffff67ffffffffffffffff909216640100000000026bffffffffffffffffffffffff1990931663ffffffff90951694909417919091171691909117905560a0840151600384015560c0909301516004928301805491151560ff19909216919091179055335f8181529282529183902042908190559251928352909184917fef2f544d132e826ace961cc1c199acb343542b9db10c171e08367657fe238ad6910160405180910390a35090506104ef60018055565b610cdb610ed8565b6007805460ff8082161560ff1990921682179092556040519116151581527f752d7e161ff5146f80e3820893176eb40532811e5e20400dfdde57455213706a90602001610533565b5f8281526002602052604090206004015460ff16610d535760405162461bcd60e51b815260040161033a906113bf565b5f8281526002602081905260409091200154600160601b90046001600160a01b03163314610dc35760405162461bcd60e51b815260206004820152601f60248201527f4f6e6c7920617574686f722063616e2075706461746520495046532043494400604482015260640161033a565b5f9182526002602052604090912060030155565b6006546001600160a01b0382165f9081526004602052604081205490918291610e009190611464565b9050804210610e1157505f92915050565b610e1b42826115af565b9392505050565b610e2a610ed8565b6001600160a01b038116610e5357604051631e4fbdf760e01b81525f600482015260240161033a565b6104c681610f04565b600260015403610e7f57604051633ee5aeb560e01b815260040160405180910390fd5b6002600155565b5f6104ef8263ffffffff166004610f53565b5f82610eaa57610ea75f610e86565b92505b81610ebb57610eb85f610e86565b91505b610e1b83835f611010565b5f610ed183836110d8565b5090919050565b5f546001600160a01b031633146107a15760405163118cdaa760e01b815233600482015260240161033a565b5f80546001600160a01b038381166001600160a01b0319831681178455604051919092169283917f8be0079c531659141344cd1fd0a4f28419497f9722a3daafe3b4186f6b6457e09190a35050565b7f9e7b61f58c47dc699ac88507c4f5bb9f121c03808c5676a8078fe583e464970154604051639cd07acb60e01b81525f917f9e7b61f58c47dc699ac88507c4f5bb9f121c03808c5676a8078fe583e4649700916001600160a01b0390911690639cd07acb90610fc890879087906004016115c2565b6020604051808303815f875af1158015610fe4573d5f803e3d5ffd5b505050506040513d601f19601f8201168201806040525081019061100891906115f2565b949350505050565b5f8082156110235750600160f81b611026565b505f5b5f7f9e7b61f58c47dc699ac88507c4f5bb9f121c03808c5676a8078fe583e4649700600181015460405163022f65e760e31b815260048101899052602481018890526001600160f81b0319851660448201529192506001600160a01b03169063117b2f38906064016020604051808303815f875af11580156110aa573d5f803e3d5ffd5b505050506040513d601f19601f820116820180604052508101906110ce91906115f2565b9695505050505050565b5f7f9e7b61f58c47dc699ac88507c4f5bb9f121c03808c5676a8078fe583e46497008054604051635ca4b5b160e11b8152600481018690526001600160a01b03858116602483015292935091169063b9496b62906044015f604051808303815f87803b158015611146575f80fd5b505af1158015611158573d5f803e3d5ffd5b50505050505050565b5f60208284031215611171575f80fd5b5035919050565b80356001600160a01b038116811461118e575f80fd5b919050565b5f80604083850312156111a4575f80fd5b823591506111b460208401611178565b90509250929050565b5f81518084525f5b818110156111e1576020818501810151868301820152016111c5565b505f602082860101526020601f19601f83011685010191505092915050565b602081525f825160e0602084015261121c6101008401826111bd565b90506020840151604084015263ffffffff604085015116606084015267ffffffffffffffff606085015116608084015260018060a01b0360808501511660a084015260a084015160c084015260c0840151151560e08401528091505092915050565b60e081525f61129060e083018a6111bd565b60208301989098525063ffffffff95909516604086015267ffffffffffffffff9390931660608501526001600160a01b0391909116608084015260a0830152151560c090910152919050565b608081525f6112ee60808301876111bd565b60208301959095525063ffffffff92909216604083015267ffffffffffffffff16606090910152919050565b5f6020828403121561132a575f80fd5b610e1b82611178565b5f8060208385031215611344575f80fd5b823567ffffffffffffffff8082111561135b575f80fd5b818501915085601f83011261136e575f80fd5b81358181111561137c575f80fd5b86602082850101111561138d575f80fd5b60209290920196919550909350505050565b5f80604083850312156113b0575f80fd5b50508035926020909101359150565b60208082526019908201527f436f6e66657373696f6e20646f6573206e6f7420657869737400000000000000604082015260600190565b634e487b7160e01b5f52601160045260245ffd5b5f63ffffffff808316818103611422576114226113f6565b6001019392505050565b600181811c9082168061144057607f821691505b60208210810361145e57634e487b7160e01b5f52602260045260245ffd5b50919050565b808201808211156104ef576104ef6113f6565b5f60018201611488576114886113f6565b5060010190565b634e487b7160e01b5f52604160045260245ffd5b601f8211156114ea57805f5260205f20601f840160051c810160208510156114c85750805b601f840160051c820191505b818110156114e7575f81556001016114d4565b50505b505050565b815167ffffffffffffffff8111156115095761150961148f565b61151d81611517845461142c565b846114a3565b602080601f831160018114611550575f84156115395750858301515b5f19600386901b1c1916600185901b1785556115a7565b5f85815260208120601f198616915b8281101561157e5788860151825594840194600190910190840161155f565b508582101561159b57878501515f19600388901b60f8161c191681555b505060018460011b0185555b505050505050565b818103818111156104ef576104ef6113f6565b82815260408101605483106115e557634e487b7160e01b5f52602160045260245ffd5b8260208301529392505050565b5f60208284031215611602575f80fd5b505191905056fea2646970667358221220542e824210af678c879529c9dd9513efad107b5410f6a3f01be514781658be5d64736f6c63430008180033",
  "linkReferences": {},
  "deployedLinkReferences": {}
}